{
  "_format": "hh3-artifact-1",
  "contractName": "BananeV1",
  "sourceName": "contracts/BananeV1.sol",
  "abi": [
    {
      "inputs": [
        {
          "internalType": "uint256",
          "name": "initialSupply",
          "type": "uint256"
        }
      ],
      "stateMutability": "nonpayable",
      "type": "constructor"
    },
    {
      "inputs": [
        {
          "internalType": "address",
          "name": "spender",
          "type": "address"
        },
        {
          "internalType": "uint256",
          "name": "allowance",
          "type": "uint256"
        },
        {
          "internalType": "uint256",
          "name": "needed",
          "type": "uint256"
        }
      ],
      "name": "ERC20InsufficientAllowance",
      "type": "error"
    },
    {
      "inputs": [
        {
          "internalType": "address",
          "name": "sender",
          "type": "address"
        },
        {
          "internalType": "uint256",
          "name": "balance",
          "type": "uint256"
        },
        {
          "internalType": "uint256",
          "name": "needed",
          "type": "uint256"
        }
      ],
      "name": "ERC20InsufficientBalance",
      "type": "error"
    },
    {
      "inputs": [
        {
          "internalType": "address",
          "name": "approver",
          "type": "address"
        }
      ],
      "name": "ERC20InvalidApprover",
      "type": "error"
    },
    {
      "inputs": [
        {
          "internalType": "address",
          "name": "receiver",
          "type": "address"
        }
      ],
      "name": "ERC20InvalidReceiver",
      "type": "error"
    },
    {
      "inputs": [
        {
          "internalType": "address",
          "name": "sender",
          "type": "address"
        }
      ],
      "name": "ERC20InvalidSender",
      "type": "error"
    },
    {
      "inputs": [
        {
          "internalType": "address",
          "name": "spender",
          "type": "address"
        }
      ],
      "name": "ERC20InvalidSpender",
      "type": "error"
    },
    {
      "inputs": [
        {
          "internalType": "address",
          "name": "owner",
          "type": "address"
        }
      ],
      "name": "OwnableInvalidOwner",
      "type": "error"
    },
    {
      "inputs": [
        {
          "internalType": "address",
          "name": "account",
          "type": "address"
        }
      ],
      "name": "OwnableUnauthorizedAccount",
      "type": "error"
    },
    {
      "anonymous": false,
      "inputs": [
        {
          "indexed": true,
          "internalType": "address",
          "name": "owner",
          "type": "address"
        },
        {
          "indexed": true,
          "internalType": "address",
          "name": "spender",
          "type": "address"
        },
        {
          "indexed": false,
          "internalType": "uint256",
          "name": "value",
          "type": "uint256"
        }
      ],
      "name": "Approval",
      "type": "event"
    },
    {
      "anonymous": false,
      "inputs": [
        {
          "indexed": true,
          "internalType": "address",
          "name": "from",
          "type": "address"
        },
        {
          "indexed": false,
          "internalType": "uint256",
          "name": "amount",
          "type": "uint256"
        }
      ],
      "name": "BananeBurned",
      "type": "event"
    },
    {
      "anonymous": false,
      "inputs": [
        {
          "indexed": true,
          "internalType": "address",
          "name": "to",
          "type": "address"
        },
        {
          "indexed": false,
          "internalType": "uint256",
          "name": "amount",
          "type": "uint256"
        }
      ],
      "name": "BananeMinted",
      "type": "event"
    },
    {
      "anonymous": false,
      "inputs": [
        {
          "indexed": true,
          "internalType": "address",
          "name": "previousOwner",
          "type": "address"
        },
        {
          "indexed": true,
          "internalType": "address",
          "name": "newOwner",
          "type": "address"
        }
      ],
      "name": "OwnershipTransferred",
      "type": "event"
    },
    {
      "anonymous": false,
      "inputs": [
        {
          "indexed": true,
          "internalType": "address",
          "name": "from",
          "type": "address"
        },
        {
          "indexed": true,
          "internalType": "address",
          "name": "to",
          "type": "address"
        },
        {
          "indexed": false,
          "internalType": "uint256",
          "name": "value",
          "type": "uint256"
        }
      ],
      "name": "Transfer",
      "type": "event"
    },
    {
      "inputs": [],
      "name": "MAX_SUPPLY",
      "outputs": [
        {
          "internalType": "uint256",
          "name": "",
          "type": "uint256"
        }
      ],
      "stateMutability": "view",
      "type": "function"
    },
    {
      "inputs": [
        {
          "internalType": "address",
          "name": "contract_",
          "type": "address"
        }
      ],
      "name": "addHunganzContract",
      "outputs": [],
      "stateMutability": "nonpayable",
      "type": "function"
    },
    {
      "inputs": [
        {
          "internalType": "address",
          "name": "owner",
          "type": "address"
        },
        {
          "internalType": "address",
          "name": "spender",
          "type": "address"
        }
      ],
      "name": "allowance",
      "outputs": [
        {
          "internalType": "uint256",
          "name": "",
          "type": "uint256"
        }
      ],
      "stateMutability": "view",
      "type": "function"
    },
    {
      "inputs": [
        {
          "internalType": "address",
          "name": "spender",
          "type": "address"
        },
        {
          "internalType": "uint256",
          "name": "value",
          "type": "uint256"
        }
      ],
      "name": "approve",
      "outputs": [
        {
          "internalType": "bool",
          "name": "",
          "type": "bool"
        }
      ],
      "stateMutability": "nonpayable",
      "type": "function"
    },
    {
      "inputs": [
        {
          "internalType": "address",
          "name": "account",
          "type": "address"
        }
      ],
      "name": "balanceOf",
      "outputs": [
        {
          "internalType": "uint256",
          "name": "",
          "type": "uint256"
        }
      ],
      "stateMutability": "view",
      "type": "function"
    },
    {
      "inputs": [
        {
          "internalType": "uint256",
          "name": "amount",
          "type": "uint256"
        }
      ],
      "name": "burn",
      "outputs": [],
      "stateMutability": "nonpayable",
      "type": "function"
    },
    {
      "inputs": [],
      "name": "decimals",
      "outputs": [
        {
          "internalType": "uint8",
          "name": "",
          "type": "uint8"
        }
      ],
      "stateMutability": "view",
      "type": "function"
    },
    {
      "inputs": [],
      "name": "hunanz",
      "outputs": [
        {
          "internalType": "address",
          "name": "",
          "type": "address"
        }
      ],
      "stateMutability": "view",
      "type": "function"
    },
    {
      "inputs": [],
      "name": "maxSupply",
      "outputs": [
        {
          "internalType": "uint256",
          "name": "",
          "type": "uint256"
        }
      ],
      "stateMutability": "pure",
      "type": "function"
    },
    {
      "inputs": [
        {
          "internalType": "address",
          "name": "to",
          "type": "address"
        },
        {
          "internalType": "uint256",
          "name": "amount",
          "type": "uint256"
        }
      ],
      "name": "mint",
      "outputs": [],
      "stateMutability": "nonpayable",
      "type": "function"
    },
    {
      "inputs": [],
      "name": "name",
      "outputs": [
        {
          "internalType": "string",
          "name": "",
          "type": "string"
        }
      ],
      "stateMutability": "view",
      "type": "function"
    },
    {
      "inputs": [],
      "name": "owner",
      "outputs": [
        {
          "internalType": "address",
          "name": "",
          "type": "address"
        }
      ],
      "stateMutability": "view",
      "type": "function"
    },
    {
      "inputs": [],
      "name": "remainingMintableSupply",
      "outputs": [
        {
          "internalType": "uint256",
          "name": "",
          "type": "uint256"
        }
      ],
      "stateMutability": "view",
      "type": "function"
    },
    {
      "inputs": [],
      "name": "renounceOwnership",
      "outputs": [],
      "stateMutability": "nonpayable",
      "type": "function"
    },
    {
      "inputs": [],
      "name": "symbol",
      "outputs": [
        {
          "internalType": "string",
          "name": "",
          "type": "string"
        }
      ],
      "stateMutability": "view",
      "type": "function"
    },
    {
      "inputs": [],
      "name": "totalSupply",
      "outputs": [
        {
          "internalType": "uint256",
          "name": "",
          "type": "uint256"
        }
      ],
      "stateMutability": "view",
      "type": "function"
    },
    {
      "inputs": [
        {
          "internalType": "address",
          "name": "to",
          "type": "address"
        },
        {
          "internalType": "uint256",
          "name": "value",
          "type": "uint256"
        }
      ],
      "name": "transfer",
      "outputs": [
        {
          "internalType": "bool",
          "name": "",
          "type": "bool"
        }
      ],
      "stateMutability": "nonpayable",
      "type": "function"
    },
    {
      "inputs": [
        {
          "internalType": "address",
          "name": "from",
          "type": "address"
        },
        {
          "internalType": "address",
          "name": "to",
          "type": "address"
        },
        {
          "internalType": "uint256",
          "name": "value",
          "type": "uint256"
        }
      ],
      "name": "transferFrom",
      "outputs": [
        {
          "internalType": "bool",
          "name": "",
          "type": "bool"
        }
      ],
      "stateMutability": "nonpayable",
      "type": "function"
    },
    {
      "inputs": [
        {
          "internalType": "address",
          "name": "newOwner",
          "type": "address"
        }
      ],
      "name": "transferOwnership",
      "outputs": [],
      "stateMutability": "nonpayable",
      "type": "function"
    }
  ],
  "bytecode": "0x608060405234801561000f575f5ffd5b5060405161115138038061115183398101604081905261002e91610325565b336040518060400160405280600681526020016542616e616e6560d01b8152506040518060400160405280600681526020016542414e414e4560d01b815250816003908161007c91906103d4565b50600461008982826103d4565b5050506001600160a01b0381166100ba57604051631e4fbdf760e01b81525f60048201526024015b60405180910390fd5b6100c381610176565b506b4d8c55aefb8c05b5c000000081111561012a5760405162461bcd60e51b815260206004820152602160248201527f496e697469616c20737570706c792065786365656473206d617820737570706c6044820152607960f81b60648201526084016100b1565b80156101705761013a33826101c7565b60405181815233907fe9ab2da72b06829bc7e9975f367ca501e74978e8eb0f7208fdb39c12839116b79060200160405180910390a25b506104b3565b600580546001600160a01b038381166001600160a01b0319831681179093556040519116919082907f8be0079c531659141344cd1fd0a4f28419497f9722a3daafe3b4186f6b6457e0905f90a35050565b6001600160a01b0382166101f05760405163ec442f0560e01b81525f60048201526024016100b1565b6101fb5f83836101ff565b5050565b6001600160a01b038316610229578060025f82825461021e919061048e565b909155506102999050565b6001600160a01b0383165f908152602081905260409020548181101561027b5760405163391434e360e21b81526001600160a01b038516600482015260248101829052604481018390526064016100b1565b6001600160a01b0384165f9081526020819052604090209082900390555b6001600160a01b0382166102b5576002805482900390556102d3565b6001600160a01b0382165f9081526020819052604090208054820190555b816001600160a01b0316836001600160a01b03167fddf252ad1be2c89b69c2b068fc378daa952ba7f163c4a11628f55a4df523b3ef8360405161031891815260200190565b60405180910390a3505050565b5f60208284031215610335575f5ffd5b5051919050565b634e487b7160e01b5f52604160045260245ffd5b600181811c9082168061036457607f821691505b60208210810361038257634e487b7160e01b5f52602260045260245ffd5b50919050565b601f8211156103cf57805f5260205f20601f840160051c810160208510156103ad5750805b601f840160051c820191505b818110156103cc575f81556001016103b9565b50505b505050565b81516001600160401b038111156103ed576103ed61033c565b610401816103fb8454610350565b84610388565b6020601f821160018114610433575f831561041c5750848201515b5f19600385901b1c1916600184901b1784556103cc565b5f84815260208120601f198516915b828110156104625787850151825560209485019460019092019101610442565b508482101561047f57868401515f19600387901b60f8161c191681555b50505050600190811b01905550565b808201808211156104ad57634e487b7160e01b5f52601160045260245ffd5b92915050565b610c91806104c05f395ff3fe608060405234801561000f575f5ffd5b506004361061011c575f3560e01c806370a08231116100a9578063bf12bf8a1161006e578063bf12bf8a14610248578063d5abeb011461025b578063dd62ed3e1461026d578063ed39f231146102a5578063f2fde38b146102b8575f5ffd5b806370a08231146101d8578063715018a6146102005780638da5cb5b1461020857806395d89b411461022d578063a9059cbb14610235575f5ffd5b8063313ce567116100ef578063313ce5671461018657806332cb6b0c14610195578063349f0b90146101a857806340c10f19146101b057806342966c68146101c5575f5ffd5b806306fdde0314610120578063095ea7b31461013e57806318160ddd1461016157806323b872dd14610173575b5f5ffd5b6101286102cb565b6040516101359190610acf565b60405180910390f35b61015161014c366004610b1f565b61035b565b6040519015158152602001610135565b6002545b604051908152602001610135565b610151610181366004610b47565b610374565b60405160128152602001610135565b6101656b4d8c55aefb8c05b5c000000081565b610165610397565b6101c36101be366004610b1f565b6103bc565b005b6101c36101d3366004610b81565b61052a565b6101656101e6366004610b98565b6001600160a01b03165f9081526020819052604090205490565b6101c361066c565b6005546001600160a01b03165b6040516001600160a01b039091168152602001610135565b61012861067f565b610151610243366004610b1f565b61068e565b600654610215906001600160a01b031681565b6b4d8c55aefb8c05b5c0000000610165565b61016561027b366004610bb8565b6001600160a01b039182165f90815260016020908152604080832093909416825291909152205490565b6101c36102b3366004610b98565b61069b565b6101c36102c6366004610b98565b6106c5565b6060600380546102da90610be9565b80601f016020809104026020016040519081016040528092919081815260200182805461030690610be9565b80156103515780601f1061032857610100808354040283529160200191610351565b820191905f5260205f20905b81548152906001019060200180831161033457829003601f168201915b5050505050905090565b5f33610368818585610702565b60019150505b92915050565b5f33610381858285610714565b61038c858585610790565b506001949350505050565b5f6103a160025490565b6103b7906b4d8c55aefb8c05b5c0000000610c35565b905090565b6006546001600160a01b031633146104145760405162461bcd60e51b8152602060048201526016602482015275139bdd0818481a1d5b99d85b9e8818dbdb9d1c9858dd60521b60448201526064015b60405180910390fd5b6001600160a01b03821661046a5760405162461bcd60e51b815260206004820152601b60248201527f43616e6e6f74206d696e7420746f207a65726f20616464726573730000000000604482015260640161040b565b6b4d8c55aefb8c05b5c00000008161048160025490565b61048b9190610c48565b11156104d95760405162461bcd60e51b815260206004820152601f60248201527f4d696e74696e6720776f756c6420657863656564206d617820737570706c7900604482015260640161040b565b6104e382826107ed565b816001600160a01b03167fe9ab2da72b06829bc7e9975f367ca501e74978e8eb0f7208fdb39c12839116b78260405161051e91815260200190565b60405180910390a25050565b6006546001600160a01b0316331461057d5760405162461bcd60e51b8152602060048201526016602482015275139bdd0818481a1d5b99d85b9e8818dbdb9d1c9858dd60521b604482015260640161040b565b5f81116105cc5760405162461bcd60e51b815260206004820152601d60248201527f416d6f756e74206d7573742062652067726561746572207468616e2030000000604482015260640161040b565b335f9081526020819052604090205481111561062a5760405162461bcd60e51b815260206004820152601c60248201527f496e73756666696369656e742062616c616e636520746f206275726e00000000604482015260640161040b565b6106343382610825565b60405181815233907fdae9c0da988ee77b5b8a98cbcb097317cb8a8da041087ff268e03c201ef3a5239060200160405180910390a250565b610674610859565b61067d5f610886565b565b6060600480546102da90610be9565b5f33610368818585610790565b6106a3610859565b600680546001600160a01b0319166001600160a01b0392909216919091179055565b6106cd610859565b6001600160a01b0381166106f657604051631e4fbdf760e01b81525f600482015260240161040b565b6106ff81610886565b50565b61070f83838360016108d7565b505050565b6001600160a01b038381165f908152600160209081526040808320938616835292905220545f1981101561078a578181101561077c57604051637dc7a0d960e11b81526001600160a01b0384166004820152602481018290526044810183905260640161040b565b61078a84848484035f6108d7565b50505050565b6001600160a01b0383166107b957604051634b637e8f60e11b81525f600482015260240161040b565b6001600160a01b0382166107e25760405163ec442f0560e01b81525f600482015260240161040b565b61070f8383836109a9565b6001600160a01b0382166108165760405163ec442f0560e01b81525f600482015260240161040b565b6108215f83836109a9565b5050565b6001600160a01b03821661084e57604051634b637e8f60e11b81525f600482015260240161040b565b610821825f836109a9565b6005546001600160a01b0316331461067d5760405163118cdaa760e01b815233600482015260240161040b565b600580546001600160a01b038381166001600160a01b0319831681179093556040519116919082907f8be0079c531659141344cd1fd0a4f28419497f9722a3daafe3b4186f6b6457e0905f90a35050565b6001600160a01b0384166109005760405163e602df0560e01b81525f600482015260240161040b565b6001600160a01b03831661092957604051634a1406b160e11b81525f600482015260240161040b565b6001600160a01b038085165f908152600160209081526040808320938716835292905220829055801561078a57826001600160a01b0316846001600160a01b03167f8c5be1e5ebec7d5bd14f71427d1e84f3dd0314c0f7b2291e5b200ac8c7c3b9258460405161099b91815260200190565b60405180910390a350505050565b6001600160a01b0383166109d3578060025f8282546109c89190610c48565b90915550610a439050565b6001600160a01b0383165f9081526020819052604090205481811015610a255760405163391434e360e21b81526001600160a01b0385166004820152602481018290526044810183905260640161040b565b6001600160a01b0384165f9081526020819052604090209082900390555b6001600160a01b038216610a5f57600280548290039055610a7d565b6001600160a01b0382165f9081526020819052604090208054820190555b816001600160a01b0316836001600160a01b03167fddf252ad1be2c89b69c2b068fc378daa952ba7f163c4a11628f55a4df523b3ef83604051610ac291815260200190565b60405180910390a3505050565b602081525f82518060208401528060208501604085015e5f604082850101526040601f19601f83011684010191505092915050565b80356001600160a01b0381168114610b1a575f5ffd5b919050565b5f5f60408385031215610b30575f5ffd5b610b3983610b04565b946020939093013593505050565b5f5f5f60608486031215610b59575f5ffd5b610b6284610b04565b9250610b7060208501610b04565b929592945050506040919091013590565b5f60208284031215610b91575f5ffd5b5035919050565b5f60208284031215610ba8575f5ffd5b610bb182610b04565b9392505050565b5f5f60408385031215610bc9575f5ffd5b610bd283610b04565b9150610be060208401610b04565b90509250929050565b600181811c90821680610bfd57607f821691505b602082108103610c1b57634e487b7160e01b5f52602260045260245ffd5b50919050565b634e487b7160e01b5f52601160045260245ffd5b8181038181111561036e5761036e610c21565b8082018082111561036e5761036e610c2156fea264697066735822122075db8e47cf2670faeae8a02415db5a1e239457dd48d49f541a70da69071f8cd164736f6c634300081c0033",
  "linkReferences": {},
  "deployedLinkReferences": {},
  "immutableReferences": {},
  "inputSourceName": "project/contracts/BananeV1.sol",
  "buildInfoId": "solc-0_8_28-c09a02e2ea8ed9d9ac598f432a379b020b5268ab"
}